:100000000C9434000C9451000C9451000C94510049
:100010000C9451000C9451000C9451000C9451001C
:100020000C9451000C9451000C9451000C9451000C
:100030000C9451000C9451000C9451000C945100FC
:100040000C9451000C9451000C9451000C945100EC
:100050000C9451000C9451000C9451000C945100DC
:100060000C9451000C94510011241FBECFEFD8E026
:10007000DEBFCDBF11E0A0E0B1E0E6EEF4E002C0EB
:1000800005900D92AC32B107D9F711E0ACE2B1E0C6
:1000900001C01D92AC33B107E1F70E94B6000C9489
:1000A00071020C94000080912C0190912D01A0917F
:1000B0002E01B0912F010097A105B10581F480E1D7
:1000C00090E00E94150281E090E0A0E0B0E0809313
:1000D0002C0190932D01A0932E01B0932F018DE15F
:1000E00091E00895CF93DF93EC0103C021960E9425
:1000F000200288818823D1F7DF91CF910895EF9274
:10010000FF920F9320E3E22E21E0F22EA70120E0E0
:1001100000E10E941801C7010E9472000F91FF9038
:10012000EF900895EF92FF920F9330E3E32E31E0CA
:10013000F32EA70120E00AE00E941801C7010E94E7
:1001400072000F91FF90EF9008950F931F9300E3BB
:1001500011E0A8010E94F601C8010E9472001F91DF
:100160000F9108958AE00E94200208950F93CF9383
:10017000DF9380E190E00E94150280E091E00E9410
:100180005300259AC0E9D1E081E091E00E9472001D
:100190008CE091E00E94720062ED74E080E090E0FB
:1001A00040E351E00E94F60180E391E00E9472007A
:1001B00065ED7DED80E090E040E351E020E00AE075
:1001C0000E94180180E391E00E9472006FEE7DECC6
:1001D0008BEA90E040E351E020E000E10E9418014A
:1001E00080E391E00E9472008AE00E9420022D9A32
:1001F00080E197E2FE013197F1F70197D9F72D9849
:1002000080E197E2FE013197F1F70197D9F70E945B
:100210002802BACF0E942002089561157105810558
:10022000910511F486E401C084E50E94200208953E
:100230002F923F924F925F926F927F928F929F92F6
:10024000AF92BF92CF92DF92EF92FF920F931F93E4
:10025000DF93CF93CDB7DEB72C970FB6F894DEBF00
:100260000FBECDBF69837A838B839C835C874B876A
:100270002D830E830A3041F4612C2AEC722E2AE978
:10028000822E2BE3922E07C020E12E83612C712C4D
:10029000812C90E1992E89819A81AB81BC81009754
:1002A000A105B10571F49D81E92FFF27E7FDF095C8
:1002B000AB85BC85EA0FFB1F80E380839F5F9D8336
:1002C00072C02224332421013E81232F30E040E0FC
:1002D00050E02F83388749875A8769817A818B81DB
:1002E0009C81A40193010E944F0259016A012114CB
:1002F00031044104510429F4A114B104C104D1040E
:1003000071F14E814A3079F45D81E52FFF27E7FDD9
:10031000F0958B859C85E80FF91F8A2D805D808381
:100320005F5F5D8317C09AE0A916B104C104D104D0
:1003300018F08A2D895C02C08A2D805DAD81EA2F7C
:10034000FF27E7FDF0952B853C85E20FF31F8083A7
:10035000AF5FAD8381E0282E312C412C512CC4019C
:10036000B3012F81388549855A850E944F02790152
:100370008A01E114F10401051105A9F0C601B501D6
:10038000A40193010E94300229813A814B815C8152
:10039000261B370B480B590B29833A834B835C830D
:1003A000370148019ACF3D81E32FFF27E7FDF09504
:1003B0004B855C85E40FF51F10822C960FB6F894E0
:1003C000DEBF0FBECDBFCF91DF911F910F91FF9088
:1003D000EF90DF90CF90BF90AF909F908F907F90E5
:1003E0006F905F904F903F902F9008950F931F93C1
:1003F0008B019C01DA0197FD03C0E0E0F0E00BC047
:100400008DE28C9330952095109501951F4F2F4FBD
:100410003F4FE1E0F0E0C901B801AD012E2F0AE045
:100420000E9418011F910F9108959093C500809329
:10043000C40088E18093C1008EE08093C2000895DB
:10044000982F8091C00085FFFCCF9093C60008953F
:1004500002C08091C6008091C00087FDFACF089548
:10046000629FD001739FF001829FE00DF11D649F98
:10047000E00DF11D929FF00D839FF00D749FF00D24
:10048000659FF00D9927729FB00DE11DF91F639FC5
:10049000B00DE11DF91FBD01CF0111240895A1E2A6
:1004A0001A2EAA1BBB1BFD010DC0AA1FBB1FEE1FEE
:1004B000FF1FA217B307E407F50720F0A21BB30B39
:1004C000E40BF50B661F771F881F991F1A9469F7B5
:1004D00060957095809590959B01AC01BD01CF0111
:0604E0000895F894FFCF1F
:1004E60000546573742078746F610A0031323334B6
:1004F60035363738394142434445460A000D010A2C
:0C05060001A500920072007F00B200000E
:00000001FF
