:100000000C9453000C9470000C9470000C947000CD
:100010000C9470000C9470000C9470000C947000A0
:100020000C9470000C9470000C9470000C94700090
:100030000C9470000C9470000C9470000C94700080
:100040000C9470000C9470000C9470000C94700070
:100050000C9470000C9470000C9470000C94700060
:100060000C9470000C9470000F0316031D032303FF
:100070003F063F063F063F063F063F063F062C036E
:1000800033033C0343034A03510358035F036603EE
:100090006D0374037B0382038903900397039E031C
:1000A000A503AC03B30311241FBECFEFD8E0DEBF1E
:1000B000CDBF11E0A0E0B1E0E0EAF1E202C00590BE
:1000C0000D92A23BB107D9F712E0A2EBB1E001C05B
:1000D0001D92AD35B107E1F70E94EA010C94CE10F4
:1000E0000C9400006091590270915A02992787FD83
:1000F00090950E946B1008952F923F924F925F92BD
:100100006F927F928F929F92AF92BF92CF92DF9227
:10011000EF92FF920F931F93DF93CF93CDB7DEB78C
:100120002C970FB6F894DEBF0FBECDBF69837A83DC
:100130008B839C835C874B872D830E830A3041F42D
:10014000612C2AEC722E2AE9822E2BE3922E07C014
:1001500020E12E83612C712C812C90E1992E8981D4
:100160009A81AB81BC810097A105B10571F49D8195
:10017000E92FFF27E7FDF095AB85BC85EA0FFB1F54
:1001800080E380839F5F9D8372C0222433242101FA
:100190003E81232F30E040E050E02F8338874987AD
:1001A0005A8769817A818B819C81A40193010E9485
:1001B0004B0E59016A01211431044104510429F400
:1001C000A114B104C104D10471F14E814A3079F413
:1001D0005D81E52FFF27E7FDF0958B859C85E80F76
:1001E000F91F8A2D805D80835F5F5D8317C09AE071
:1001F000A916B104C104D10418F08A2D895C02C08B
:100200008A2D805DAD81EA2FFF27E7FDF0952B85D4
:100210003C85E20FF31F8083AF5FAD8381E0282E22
:10022000312C412C512CC401B3012F8138854985D3
:100230005A850E944B0E79018A01E114F1040105EF
:100240001105A9F0C601B501A40193010E942C0E6D
:1002500029813A814B815C81261B370B480B590B56
:1002600029833A834B835C83370148019ACF3D81D0
:10027000E32FFF27E7FDF0954B855C85E40FF51F25
:1002800010822C960FB6F894DEBF0FBECDBFCF9173
:10029000DF911F910F91FF90EF90DF90CF90BF9073
:1002A000AF909F908F907F906F905F904F903F9016
:1002B0002F9008950F931F938B019C01DA0197FDF6
:1002C00003C0E0E0F0E00BC08DE28C933095209508
:1002D000109501951F4F2F4F3F4FE1E0F0E0C9010E
:1002E000B801AD012E2F0AE00E947C001F910F91F2
:1002F00008958091C00087FFFCCF8091C6000895CB
:10030000CF93DF93DB019C91C92FD0E040E050E018
:1003100021E030E0682F70E008C0FD01E20FF31F1C
:100320008081480F511D2F5F3F4F26173707ACF3D1
:1003300020E030E04C235D234C175D0711F421E0F1
:1003400030E0C901DF91CF9108951F93182F8CECF5
:100350000E94AD0283E00E94AD02812F0E94AD0297
:10036000812F0E94AD0280E00E94AD021F9108958E
:1003700083E30E94AD0280E00E94AD0208958CEC00
:100380000E94AD0280E00E94AD020895FF920F939B
:100390001F93182F90E00E94880E082FF92E60E01E
:1003A00070E0412F50E00E946410802F9F2D9C012F
:1003B000F90108C08091C00087FFFCCF8091C60082
:1003C000819311501123B1F7802F9F2D1F910F9111
:1003D000FF9008956F927F928F929F92AF92BF92FB
:1003E000CF92DF92EF92FF920F931F93CF93DF9301
:1003F0000E949802CC24DD24EE24FF2430E4932EC6
:1004000021E4622E93E4892E85E4782E8091C00049
:1004100087FFFCCF0091C600033018F48092B20130
:10042000F5CF102F1150812F0E94C6015C018091E1
:10043000C00087FFFCCF8091C600812FB5010E94CC
:100440008001F50121812232C1F1233220F42032D2
:1004500009F064C007C0233209F45AC0243209F0FD
:100460005DC005C00E94BF019092B20159C010E06A
:1004700003501040E9F00197C1F4E701C00FD11F0C
:10048000C601BE010E948D0F6C019C012E0D3F1D07
:10049000A5014E5F5F4FC901BA01A8010E945B1020
:1004A0009092B2010E94BF013CC07092B20102C0A2
:1004B0008092B2010E94B80133C00E94BF0180E067
:1004C00091E00E94C80284E191E00E94C80285E1A7
:1004D00091E00E94C80285E291E00E94C8020E9459
:1004E000DA0282E391E00E94C8020E94DA02C601A9
:1004F0000E945C06C6010E94E3020E94BF01909226
:10050000B201C6010E94350FE701CC24DD2409C0E9
:100510008091B20190E00E94A50102C06092B201F8
:10052000E701C5010E94350F0E94B30D7E016ECF19
:100530008FE591E00E940D0E0E949F020895909316
:10054000B4018093B3010895E091B301F091B40137
:100550000190F081E02D09950895E091B301F091AB
:10056000B4010280F381E02D09950895E091B30173
:10057000F091B4010480F581E02D09950895E09192
:10058000B301F091B4010680F781E02D099508953B
:10059000E091B301F091B4010084F185E02D09955B
:1005A0000895E091B301F091B4010284F385E02D48
:1005B00009950895E091B301F091B4010484F585A3
:1005C000E02D099508952F923F924F925F926F927E
:1005D0007F928F929F92AF92BF92CF92DF92EF92D3
:1005E000FF920F931F93DF93CF9300D000D0CDB72E
:1005F000DEB7C8C2802F81508F3208F0BBC0802F79
:1006000090E0FC013197EF31F10508F038C3EC5C64
:10061000FF4FEE0FFF1F0590F491E02D099480919C
:10062000B9019091BA010E94A90623C08091B90135
:100630009091BA010E94360703C18091B90190914F
:10064000BA010E94720B8091B9019091BA010E9487
:10065000A9067C836B8313C38091B9019091BA0181
:100660000E945B07FDC08091B9019091BA010E9480
:1006700077072B813C8137C28091B9019091BA01F3
:100680000E94A207DDC08091B9019091BA010E9439
:10069000CD07E6C08091B9019091BA010E94F80798
:1006A000E8CF8091B9019091BA010E941708C8C0A3
:1006B0008091B9019091BA010E943208D1C0809115
:1006C000B9019091BA010E944D08D3CF8091B90130
:1006D0009091BA010E947808B3C08091B9019091BD
:1006E000BA010E94A308BCC08091B9019091BA01DF
:1006F0000E942D0DBECF8091B9019091BA010E9448
:10070000D0089EC08091B9019091BA010E94FD0865
:10071000A7C08091B9019091BA010E942809A9CF80
:100720008091B9019091BA010E94530989C08091CA
:10073000B9019091BA010E948B0992C08091B901D0
:100740009091BA010E94C30994CF8091B901909110
:10075000BA010E94FB0974C08091B9019091BA015D
:100760000E94330A7DC08091B9019091BA010E9424
:100770006B0A7FCF802F8053803250F4803114F089
:100780008051806F992787FD9095EB81FC81D5C1C1
:10079000802F80558032B0F4182F803114F0105122
:1007A000106F8091B9019091BA010E94A90661155C
:1007B00071058105910509F011E0812F992787FDC9
:1007C0009095AEC1602F6057603238F48091B901C6
:1007D0009091BA010E94A30A33C0802F80598830BB
:1007E000B0F4802F90E087709070843091051CF0F9
:1007F00004978C6F9F6FAC01662757FD6095762F2D
:100800008091B9019091BA010E94950629C0802F6C
:100810008859883048F407708091B9019091BA01E5
:10082000602F0E94280C25CF802F805A883060F4DA
:1008300007708091B9019091BA01602F0E948B0CD2
:100840008B819C8101969EC1802F885A883060F4EC
:1008500007708091B9019091BA01602F0E94D90C64
:10086000EB81FC8131966BC1003B08F408C2093D65
:1008700009F4AEC00A3D40F5043B09F472C0053BE3
:1008800080F4013B09F445C0023B20F4003B09F031
:10089000E2C15DC0023B09F446C0033B09F0DBC185
:1008A0004CC0053D09F481C0063D38F40F3B09F406
:1008B00061C0043D09F0CFC167C0073D09F488C09D
:1008C000083D09F0C8C1A1C00E3D09F4CAC00F3DE2
:1008D00068F40B3D09F4C5C00B3D08F496C00C3D0F
:1008E00009F476C00D3D09F0B6C18FC0033E09F48E
:1008F00004C1043E38F4003E09F4F8C0013E09F09A
:10090000AAC113C1073E09F41DC10F3F09F0A3C1DD
:100910003CC18091B9019091BA01EB81FC81618168
:100920000E948B0C91C18091B9019091BA01EB8129
:10093000FC8161810E94D90C87C18091B90190919D
:10094000BA0141E050E060E070E00E9495068091BD
:10095000B9019091BA01EB81FC8161810E94280C60
:1009600073C18091B9019091BA014FEF5FEF6FEFC2
:100970007FEFEBCF8091B9019091BA01EB81FC81BF
:1009800061810E940E0B60C1EB81FC814181552782
:1009900047FD50954E0F5F1F662757FD6095762FD8
:1009A0008091B9019091BA012DC0EB81FC819180B9
:1009B0008824428150E0482959294E0F5F1F66273D
:1009C00057FD6095762F8091B9019091BA0142C090
:1009D000EB81FC818181093D19F4482F20E002C0A0
:1009E000282F40E08091B9019091BA01093D31F47E
:1009F000552747FD5095652F752F04C0422F50E0B5
:100A000060E070E00E9495061FC1EB81FC8181814E
:100A100092810A3D49F4782E6624292F30E0262958
:100A2000372940E050E008C0582E4424492F50E0B8
:100A30004429552920E030E08091B9019091BA0114
:100A40000A3D31F4A901662757FD6095762F02C053
:100A500060E070E00E9495062B813C812D5F3F4F46
:100A6000F7C02B813C812F5F3F4FF9013196DF01A9
:100A700011967D010894E11CF11CB180AA24A50106
:100A8000662757FD6095762F4070607070701196E4
:100A90008C9190E0A0E0B0E0482B592B6A2B7B2B87
:100AA000EB81FC81D180CC24C601AA2797FDA095BB
:100AB000BA2F8070A070B070F901018110E020E0C1
:100AC00030E0802B912BA22BB32BDC0199278827B8
:100AD000482B592B6A2B7B2B8091B9019091BA013D
:100AE0000E94950697012F5F3F4FB2C0EB81FC81BA
:100AF0008181992787FD909520C08091B9019091BF
:100B0000BA010E94A906611571058105910511F0D0
:100B100082E003C0EB81FC818181992787FD90955C
:100B20002B813C81280F391F93C0EB81FC813180E0
:100B30002224828190E082299329E80FF91FFC8307
:100B4000EB839DC0EB81FC81F181FA831982EB81FB
:100B5000FC81028110E029813A81022B132B33960C
:100B6000AF01662757FD6095762F3397FC83EB83A3
:100B70008091B9019091BA010E9495068B819C8168
:100B8000800F911F9C838B837AC0EB81FC819181C4
:100B9000892F8058883008F057C0892F90E08F70D7
:100BA00090708330910589F1843091054CF4813047
:100BB0009105C1F082309105FCF4892B51F044C0BD
:100BC00086309105B1F187309105E1F10597E1F5A6
:100BD00025C08091B9019091BA010E94A9060E9496
:100BE000A40232C08091B9019091BA010E94A90675
:100BF000862F0E94AD0228C08091B9019091BA0160
:100C00000E94A9060E94B6021FC08091B90190916E
:100C1000BA010E94A9060E94BF0216C08091B901C4
:100C20009091BA010E94A906DC01CB010E94C80282
:100C30000BC08091B9019091BA010E94A9060E944F
:100C4000D10202C00E94DA022B813C812E5F3F4F0D
:100C50003C832B8314C080E691E00E94C802602F81
:100C600070E080E090E00E94D10289E691E00E946D
:100C7000C8020E94DA0280E090E00E94CE10EB8170
:100C8000FC810081002309F0B5CC0F900F900F90EC
:100C90000F90CF91DF911F910F91FF90EF90DF9018
:100CA000CF90BF90AF909F908F907F906F905F900C
:100CB0004F903F902F9008951092B5011092B60179
:100CC0001092B7011092B80180E20E9472069093D0
:100CD000BA018093B9010E94DD069093BC01809314
:100CE000BB010895982F882339F08FEF80933E023F
:100CF00080933D0290933F028DEB91E0089508951B
:100D0000FC01EF57FF4F2081332727FD30952F5FE0
:100D10003F4F442737FD4095542FB901CA0108952C
:100D2000FC01EE57FF4F80810895DC01AF57BF4FA4
:100D3000EC91EF5FEC93FF27E7FDF095EE0FFF1FBF
:100D4000EE0FFF1FE80FF91F408351836283738307
:100D50000895DC01AF57BF4F2C91E22FFF27E7FD2D
:100D6000F095EE0FFF1FEE0FFF1FE80FF91F6081D8
:100D700071818281938121502C93089520E030E08D
:100D800040E050E0FC01EF57FF4F80818F3F21F49E
:100D900021E030E040E050E0B901CA010895FC01D3
:100DA0009093410280934002EF57FF4F80818F5F05
:100DB0008093420280E492E00895FC019093410206
:100DC00080934002EF57FF4F80818F5F80934202F4
:100DD00080E492E008950895FC012281215022834D
:100DE000332727FD3095432F532F2095309540957D
:100DF0005095222757FD2395332744275527B901BE
:100E0000CA010895FC01A081B1818281992787FDE3
:100E10009095880F991F880F991FA80FB91F6C9183
:100E200011967C91119712968C91129713969C9122
:100E30000895FC01A081B181AF57BF4F8C918F5FA6
:100E400082830895FC01EF57FF4F8081E158F04005
:100E5000992787FD9095880F991F880F991FE80F94
:100E6000F91F60817181828193810895BC016F5760
:100E70007F4FFB01A081EA2FFF27E7FDF095EE0FE2
:100E8000FF1FEE0FFF1FE80FF91F20813181428104
:100E90005381AF5FFB01A083BB27A7FDB095AA0FCD
:100EA000BB1FAA0FBB1FA80FB91F2D933D934D93D6
:100EB0005C9313970895FC01EF57FF4F8081E15831
:100EC000F040992787FD9095880F991F880F991FEB
:100ED000E80FF91F80819181A281B381809590955F
:100EE000A095B09580839183A283B3830895DC019C
:100EF000AF57BF4F6C91E62FFF27E7FDF095EE0F40
:100F0000FF1FEE0FFF1FE80FF91F20813181428183
:100F10005381E62FE150EC93FF27E7FDF095EE0FAC
:100F2000FF1FEE0FFF1FE80FF91F80819181A28143
:100F3000B38182239323A423B52380839183A28347
:100F4000B3830895DC01AF57BF4F6C91E62FFF27A5
:100F5000E7FDF095EE0FFF1FEE0FFF1FE80FF91FE3
:100F60002081318142815381E62FE150EC93FF27AC
:100F7000E7FDF095EE0FFF1FEE0FFF1FE80FF91FC3
:100F800080819181A281B381822B932BA42BB52BDD
:100F900080839183A283B3830895DC01AF57BF4F51
:100FA0006C91E62FFF27E7FDF095EE0FFF1FEE0F88
:100FB000FF1FE80FF91F2081318142815381E62F05
:100FC000E150EC93FF27E7FDF095EE0FFF1FEE0FCA
:100FD000FF1FE80FF91F80819181A281B3818227D1
:100FE0009327A427B52780839183A283B383089591
:100FF000FC01EF57FF4F8081E158F040992787FDB2
:101000009095880F991F880F991FE80FF91F80810D
:101010009181A281B381B095A095909581959F4FC4
:10102000AF4FBF4F80839183A283B3830895FC01A8
:10103000EF57FF4F8081E158F040992787FD909549
:10104000880F991F880F991FE80FF91F80819181E0
:10105000A281B3810196A11DB11D80839183A283DA
:10106000B3830895FC01EF57FF4F8081E158F040B2
:10107000992787FD9095880F991F880F991FE80F72
:10108000F91F80819181A281B3810197A109B109E2
:1010900080839183A283B3830895DC01AF57BF4F50
:1010A0006C91E62FFF27E7FDF095EE0FFF1FEE0F87
:1010B000FF1FE80FF91F2081318142815381E62F04
:1010C000E150EC93FF27E7FDF095EE0FFF1FEE0FC9
:1010D000FF1FE80FF91F80819181A281B381820FE8
:1010E000931FA41FB51F80839183A283B3830895A8
:1010F000DC01AF57BF4F6C91E62FFF27E7FDF0955E
:10110000EE0FFF1FEE0FFF1FE80FF91F2081318147
:1011100042815381E62FE150EC93FF27E7FDF095E4
:10112000EE0FFF1FEE0FFF1FE80FF91F8081918167
:10113000A281B381821B930BA40BB50B8083918397
:10114000A283B3830895CF93DF93DC01AF57BF4FE2
:101150006C91E62FFF27E7FDF095EE0FFF1FEE0FD6
:10116000FF1FE80FF91F20813181428153816150B7
:101170006C93C62FDD27C7FDD095CC0FDD1FCC0F9C
:10118000DD1FC80FD91F688179818A819B810E94E8
:101190002C0E688379838A839B83DF91CF91089596
:1011A000CF93DF93DC01AF57BF4F6C91E62FFF2742
:1011B000E7FDF095EE0FFF1FEE0FFF1FE80FF91F81
:1011C000208131814281538161506C93C62FDD278C
:1011D000C7FDD095CC0FDD1FCC0FDD1FC80FD91F69
:1011E000688179818A819B810E946D0E68837983F1
:1011F0008A839B83DF91CF910895DC01AF57BF4F66
:101200003C91E32FFF27E7FDF095EE0FFF1FEE0F58
:10121000FF1FE80FF91F2081E32FE150EC93FF2718
:10122000E7FDF095EE0FFF1FEE0FFF1FE80FF91F10
:1012300080819181A281B38104C0880F991FAA1F68
:10124000BB1F2A95D2F780839183A283B38308952D
:10125000DC01AF57BF4F3C91E32FFF27E7FDF0952F
:10126000EE0FFF1FEE0FFF1FE80FF91F2081E32F86
:10127000E150EC93FF27E7FDF095EE0FFF1FEE0F17
:10128000FF1FE80FF91F80819181A281B38104C003
:10129000B595A795979587952A95D2F780839183E1
:1012A000A283B38308950F931F93DC01AF57BF4F01
:1012B0002C91E22FFF27E7FDF095EE0FFF1FEE0FB9
:1012C000FF1FE80FF91F4081518162817381215016
:1012D0002C93E22FFF27E7FDF095EE0FFF1FEE0F97
:1012E000FF1FE80FF91F00E010E020E030E08081F0
:1012F0009181A281B38184179507A607B70721F4CE
:1013000001E010E020E030E000831183228333838A
:101310001F910F9108950F931F93DC01AF57BF4F9B
:101320002C91E22FFF27E7FDF095EE0FFF1FEE0F48
:10133000FF1FE80FF91F40815181628173812150A5
:101340002C93E22FFF27E7FDF095EE0FFF1FEE0F26
:10135000FF1FE80FF91F00E010E020E030E080817F
:101360009181A281B38184179507A607B70721F061
:1013700001E010E020E030E000831183228333831A
:101380001F910F9108950F931F93DC01AF57BF4F2B
:101390002C91E22FFF27E7FDF095EE0FFF1FEE0FD8
:1013A000FF1FE80FF91F4081518162817381215035
:1013B0002C93E22FFF27E7FDF095EE0FFF1FEE0FB6
:1013C000FF1FE80FF91F00E010E020E030E080810F
:1013D0009181A281B38184179507A607B70724F4EA
:1013E00001E010E020E030E00083118322833383AA
:1013F0001F910F9108950F931F93DC01AF57BF4FBB
:101400002C91E22FFF27E7FDF095EE0FFF1FEE0F67
:10141000FF1FE80FF91F40815181628173812150C4
:101420002C93E22FFF27E7FDF095EE0FFF1FEE0F45
:10143000FF1FE80FF91F00E010E020E030E080819E
:101440009181A281B381481759076A077B0724F469
:1014500001E010E020E030E0008311832283338339
:101460001F910F9108950F931F93DC01AF57BF4F4A
:101470002C91E22FFF27E7FDF095EE0FFF1FEE0FF7
:10148000FF1FE80FF91F4081518162817381215054
:101490002C93E22FFF27E7FDF095EE0FFF1FEE0FD5
:1014A000FF1FE80FF91F00E010E020E030E080812E
:1014B0009181A281B381481759076A077B0724F0FD
:1014C00001E010E020E030E00083118322833383C9
:1014D0001F910F9108950F931F93DC01AF57BF4FDA
:1014E0002C91E22FFF27E7FDF095EE0FFF1FEE0F87
:1014F000FF1FE80FF91F40815181628173812150E4
:101500002C93E22FFF27E7FDF095EE0FFF1FEE0F64
:10151000FF1FE80FF91F00E010E020E030E08081BD
:101520009181A281B38184179507A607B70724F09C
:1015300001E010E020E030E0008311832283338358
:101540001F910F910895CF92DF92EF92FF920F9328
:101550001F93AC01862F837011E8C12ED12CC40ECD
:10156000D51ED6012C91E22FFF27E7FDF095EE0F57
:10157000FF1FEE0FFF1FE40FF51FE080F1800281D7
:101580001381382F320FE32FFF27E7FDF095EE0F81
:10159000FF1FEE0FFF1FE40FF51F262F220F220F54
:1015A0002074660F6871262B822B90E0A0E0B0E0DB
:1015B00080839183A283B3833F5FE32FFF27E7FDFF
:1015C000F095EE0FFF1FEE0FFF1FE40FF51FE082F7
:1015D000F182028313833F5FF6013083E32FFF27FD
:1015E000E7FDF095EE0FFF1FEE0FFF1FE40FF51F55
:1015F00040585F4FDA018C91992787FD9095A92F6C
:10160000B92F80839183A283B383FA0130831F9122
:101610000F91FF90EF90DF90CF900895CF92DF92DF
:10162000EF92FF920F931F939C01862F877071E8B2
:10163000C72ED12CC20ED31ED6014C91E42FFF270A
:10164000E7FDF095EE0FFF1FEE0FFF1FE20FF31FF8
:10165000E080F18002811381480FE42FFF27E7FD2E
:10166000F095EE0FFF1FEE0FFF1FE20FF31F6877DD
:10167000862B90E0A0E0B0E080839183A283B383C7
:101680004F5FE42FFF27E7FDF095EE0FFF1FEE0FF2
:10169000FF1FE20FF31FE082F182028313834F5F8B
:1016A000F6014083E42FFF27E7FDF095EE0FFF1FC3
:1016B000EE0FFF1FE20FF31F20583F4FD9018C910F
:1016C000992787FD9095A92FB92F80839183A283B5
:1016D000B383F90140831F910F91FF90EF90DF904A
:1016E000CF9008958F929F92AF92BF92CF92DF9248
:1016F000EF92FF921F93CF93DF93EC01C058DF4F1F
:10170000E881C058D040FF27E7FDF0953297EE0FF3
:10171000FF1FEE0FFF1FEC0FFD1F2081822F829510
:1017200086958695837090E0A0E0B0E0122F169524
:10173000169516951770277051E0852E912CA12CC7
:10174000B12C88229922AA22BB2280FD05C040E04C
:1017500050E060E070E014C0DE01AF57BF4F8C91E5
:10176000E82FFF27E7FDF095EE0FFF1FEE0FFF1F9D
:10177000EC0FFD1F408151816281738181508C93F8
:10178000DE01AF57BF4F9C91E92FFF27E7FDF09592
:10179000EE0FFF1FEE0FFF1FEC0FFD1F8081C058E3
:1017A000DF4F8883C058D0409150E92FFF27E7FDD5
:1017B000F095EE0FFF1FEE0FFF1FEC0FFD1FC08017
:1017C000D180E280F380812F820F392F381B325075
:1017D0003C93822F90E0810F911D089714F0321BEB
:1017E0003C9381149104A104B10499F0DE01AF5738
:1017F000BF4FEC91EF5FEC93FF27E7FDF095EE0F05
:10180000FF1FEE0FFF1FEC0FFD1F4083518362830C
:101810007383DE01AF57BF4FEC91EF5FEC93FF276F
:10182000E7FDF095EE0FFF1FEE0FFF1FEC0FFD1F02
:10183000C082D182E282F382DF91CF911F91FF902B
:10184000EF90DF90CF90BF90AF909F908F900895D2
:10185000EF92FF921F93CF93DF93EC01462FC05876
:10186000DF4F8881C058D040682F772767FD70957B
:10187000FB013297EE0FFF1FEE0FFF1FEC0FFD1F56
:101880008081382F3695369536953770282F2770FA
:10189000822F90E0830F911D08972CF0822F841BDC
:1018A0008E5F820F03C0822F841B8E5F830F681BA5
:1018B0007109660F771F660F771F6C0F7D1FFB0185
:1018C00080819181A281B38131E8E32EF12CEC0E6D
:1018D000FD1EF7011081E12FFF27E7FDF095EE0FC8
:1018E000FF1FEE0FFF1FEC0FFD1F20813181428192
:1018F00053811150F7011083820F931FA41FB51F4E
:10190000FB0180839183A283B383DF91CF911F91E9
:10191000FF90EF900895CF93DF93EC01C058DF4F15
:101920008881C058D040A82FBB27A7FDB095FD01E6
:101930003297EE0FFF1FEE0FFF1FEC0FFD1F808190
:10194000382F3695369536953770282F2770822F89
:1019500090E0830F911D089734F0822F861B682F2B
:101960006E5F620F03C0261B622F6E5F630FA61BA4
:10197000B109AA0FBB1FAA0FBB1FAC0FBD1F2D9132
:101980003D914D915C91DE01AF57BF4FEC91EF5F00
:10199000EC93FF27E7FDF095EE0FFF1FEE0FFF1F03
:1019A000EC0FFD1F2083318342835383DF91CF915E
:1019B00008950F931F93CF93DF93EC01C058DF4F2F
:1019C0008881C058D040082F112707FD1095F801D5
:1019D0003297EE0FFF1FEE0FFF1FEC0FFD1F8081F0
:1019E000382F3695369536953770282F2770822FE9
:1019F00090E0830F911D089734F0822F861B682F8B
:101A00006E5F620F03C0261B622F6E5F630FDE01E5
:101A1000AF57BF4F8C91E82FFF27E7FDF095EE0FF2
:101A2000FF1FEE0FFF1FEC0FFD1F20813181428150
:101A3000538181508C93061B1109000F111F000F59
:101A4000111F0C0F1D1FF801208331834283538324
:101A5000DF91CF911F910F9108950F931F93BC01B8
:101A6000FC01EF57FF4F8081A82FBB27A7FDB09542
:101A7000AA0FBB1FAA0FBB1FA60FB71F2D913D9129
:101A80004D915C91082F01500083211531054105CE
:101A9000510529F487E891E00E94C80215C011277A
:101AA00007FD1095000F111F000F111F060F171FC4
:101AB000F80160817181828193810E946D0EF8012D
:101AC00020833183428353831F910F910895EF92B6
:101AD000FF920F931F93CF93DF93EC01E881F9817D
:101AE000EF57FF4F80818F5F8A838BE50E94AD02A5
:101AF00017C0E881F981992787FD9095880F991F74
:101B0000880F991FE80FF91FE080F180028113818F
:101B100089E991E00E94C802C801B7010E94D10280
:101B20008A8181508A8387FFE4CF8BE991E00E940C
:101B3000C802DF91CF911F910F91FF90EF90089510
:101B40009093C5008093C40088E18093C1008EE02B
:101B50008093C2000895982F8091C00085FFFCCF2C
:101B60009093C600089502C08091C6008091C00085
:101B700087FDFACF08958AE00E94AB0D0895CF93B8
:101B8000DF93EC0103C021960E94AB0D888188236E
:101B9000D1F7DF91CF9108950E94AB0D08956115A3
:101BA00071058105910511F486E401C084E50E9468
:101BB000AB0D0895EF92FF920F9327E4E22E22E0FF
:101BC000F22EA70120E000E10E947C00C7010E94E4
:101BD000BF0D0F91FF90EF900895EF92FF920F933A
:101BE00037E4E32E32E0F32EA70120E00AE00E9462
:101BF0007C00C7010E94BF0D0F91FF90EF900895E8
:101C00000F931F9307E412E0A8010E945A01C80134
:101C10000E94BF0D1F910F910895809143029091F2
:101C20004402A0914502B09146020097A105B1057A
:101C300081F480E190E00E94A00D81E090E0A0E0BE
:101C4000B0E08093430290934402A0934502B09386
:101C500046028EE991E00895629FD001739FF001E2
:101C6000829FE00DF11D649FE00DF11D929FF00D2C
:101C7000839FF00D749FF00D659FF00D9927729F63
:101C8000B00DE11DF91F639FB00DE11DF91FBD01EE
:101C9000CF0111240895A1E21A2EAA1BBB1BFD013E
:101CA0000DC0AA1FBB1FEE1FFF1FA217B307E4073B
:101CB000F50720F0A21BB30BE40BF50B661F771F93
:101CC000881F991F1A9469F7609570958095909573
:101CD0009B01AC01BD01CF01089597FB092E05269C
:101CE0000ED057FD04D0D7DF0AD0001C38F4509531
:101CF0004095309521953F4F4F4F5F4F0895F6F730
:101D000090958095709561957F4F8F4F9F4F089567
:101D1000CF93DF93BC018230910510F462E070E054
:101D2000A0915502B0915602ED01E0E0F0E040E0F4
:101D300050E021C0888199818617970769F48A81CC
:101D40009B81309719F09383828304C0909356024D
:101D500080935502FE0134C06817790738F44115A5
:101D6000510519F08417950708F4AC01FE018A812A
:101D70009B819C01E9012097E9F641155105A9F1E4
:101D8000CA01861B970B049708F4BA01E0E0F0E063
:101D90002AC08D919C91119784179507F9F46417C7
:101DA000750781F412968D919C911397309719F0D5
:101DB0009383828304C09093560280935502FD0161
:101DC00032964FC0CA01861B970BFD01E80FF91F21
:101DD0006193719302978D939C9343C0FD0182811F
:101DE00093819C01D9011097A1F6809153029091A3
:101DF0005402892B41F48091AE019091AF019093F0
:101E00005402809353024091B0015091B1014115A9
:101E1000510541F44DB75EB78091AC019091AD0191
:101E2000481B590B20915302309154022417350757
:101E3000B0F4CA01821B930B8617970780F0AB01A1
:101E40004E5F5F4F8417950750F0420F531F50931A
:101E5000540240935302F9016193719302C0E0E090
:101E6000F0E0CF01DF91CF910895CF93DF930097FA
:101E700009F450C0EC0122971B821A82A0915502EE
:101E8000B0915602109709F140E050E0AC17BD0741
:101E900008F1BB83AA83FE0121913191E20FF31F68
:101EA000AE17BF0779F48D919C911197280F391FB8
:101EB0002E5F3F4F3983288312968D919C91139703
:101EC0009B838A834115510571F4D0935602C093C8
:101ED000550220C012968D919C911397AD010097E9
:101EE00011F0DC01D3CFFA01D383C2832191319168
:101EF000E20FF31FCE17DF0769F488819981280F5D
:101F0000391F2E5F3F4FFA01318320838A819B81E5
:101F100093838283DF91CF910895A0E0B0E0E3E95D
:101F2000FFE00C949D108C01009729F4CB010E94D6
:101F3000880E8C01BAC09EEFE92E9FEFF92EE00EBD
:101F4000F11E5801A60EB71EAE14BF0408F4ABC0B4
:101F50008EEF882E8FEF982E8A0C9B1CE70148810C
:101F6000598146175707B8F04530510508F49DC010
:101F7000CA0104978617970708F497C0425050404B
:101F8000461B570BF4015183408379836883C50155
:101F90000E94350F8AC06B01C41AD50AE091550220
:101FA000F0915602A0E0B0E0C0E0D0E042C0E815F9
:101FB000F905A1F5208131812C153D0578F1C90184
:101FC00002968C159D05A8F04E5F5F4F420F531F80
:101FD000E7015983488322813381109729F01396B2
:101FE0003C932E93129761C0309356022093550272
:101FF0005CC0225030402C193D093183208310975A
:1020000029F01396FC93EE93129704C0F0935602B6
:10201000E0935502F7017183608347C0808191810D
:10202000C817D90708F4EC01DF01828193819C0174
:10203000F901309709F0BBCF400F511F8091530237
:102040009091540284179507E9F4C617D707D0F486
:102050002091B0013091B1012115310541F42DB726
:102060003EB78091AC019091AD01281B390BA216AF
:10207000B306C8F4B0925402A0925302E7017983E8
:10208000688313C0CB010E94880EEC01009759F0C1
:10209000F70140815181B8010E945B10C8010E9484
:1020A000350F8E0102C000E010E0C801CDB7DEB7E9
:1020B000ECE00C94B910FB01DC0102C001900D9220
:1020C00041505040D8F70895DC0101C06D93415054
:1020D0005040E0F708950F931F93CF93DF938C0147
:1020E000EB018B8181FF1BC082FF0DC02E813F81E0
:1020F0008C819D812817390764F4E881F981019367
:10210000F983E88306C0E885F985802F0995892B36
:1021100031F48E819F8101969F838E8302C00FEFE1
:102120001FEFC801DF91CF911F910F9108952F925A
:102130003F924F925F926F927F928F929F92AF9257
:10214000BF92CF92DF92EF92FF920F931F93CF93A4
:10215000DF93CDB7DEB7CA1BDB0B0FB6F894DEBF3B
:102160000FBECDBF09942A88398848885F846E8461
:102170007D848C849B84AA84B984C884DF80EE80AB
:10218000FD800C811B81AA81B981CE0FD11D0FB6B4
:10219000F894DEBF0FBECDBFED010895F894FFCFD8
:1021A000436D205669727475616C204D6163686976
:1021B0006E652000002076302E312E30302E3131E9
:1021C00030316120002841544D6567613332385009
:1021D0002900436F70797269676874202863292029
:1021E000323030312D3230323020204D6963686515
:1021F0006C206465204368616D706C61696E0000DD
:102200004F70636F64653A200020697320726573B4
:10221000657276656420666F722066757475726586
:1022200020757365642E004469766973696F6E204A
:102230006279207A65726F0A002000205D00CF0D60
:10224000CC0D000EED0DBF0DDA0DBB0D20005D02B3
:0222500000008C
:00000001FF
