:100000000C9453000C9470000C9470000C947000CD
:100010000C9470000C9470000C9470000C947000A0
:100020000C9470000C9470000C9470000C94700090
:100030000C9470000C9470000C9470000C94700080
:100040000C9470000C9470000C9470000C94700070
:100050000C9470000C9470000C9470000C94700060
:100060000C9470000C9470001202190220022602F7
:1000700042054205420542054205420542052F025E
:1000800036023F0246024D0254025B0262026902DE
:10009000700277027E0285028C0293029A02A1020C
:1000A000A802AF02B60211241FBECFEFD8E0DEBF18
:1000B000CDBF12E0A0E0B1E0E2E7FBE102C00590B5
:1000C0000D92AA35B107D9F713E0AAE5B2E001C055
:1000D0001D92A030B107E1F70E9479010C94B70D91
:1000E0000C9400006091FC027091FD02992787FD3D
:1000F00090950E948B0D08952F923F924F925F92A0
:100100006F927F928F929F92AF92BF92CF92DF9227
:10011000EF92FF920F931F93DF93CF93CDB7DEB78C
:100120002C970FB6F894DEBF0FBECDBF69837A83DC
:100130008B839C835C874B872D830E830A3041F42D
:10014000612C2AEC722E2AE9822E2BE3922E07C014
:1001500020E12E83612C712C812C90E1992E8981D4
:100160009A81AB81BC810097A105B10571F49D8195
:10017000E92FFF27E7FDF095AB85BC85EA0FFB1F54
:1001800080E380839F5F9D8372C0222433242101FA
:100190003E81232F30E040E050E02F8338874987AD
:1001A0005A8769817A818B819C81A40193010E9485
:1001B0004E0D59016A01211431044104510429F4FE
:1001C000A114B104C104D10471F14E814A3079F413
:1001D0005D81E52FFF27E7FDF0958B859C85E80F76
:1001E000F91F8A2D805D80835F5F5D8317C09AE071
:1001F000A916B104C104D10418F08A2D895C02C08B
:100200008A2D805DAD81EA2FFF27E7FDF0952B85D4
:100210003C85E20FF31F8083AF5FAD8381E0282E22
:10022000312C412C512CC401B3012F8138854985D3
:100230005A850E944E0D79018A01E114F1040105ED
:100240001105A9F0C601B501A40193010E942F0D6B
:1002500029813A814B815C81261B370B480B590B56
:1002600029833A834B835C83370148019ACF3D81D0
:10027000E32FFF27E7FDF0954B855C85E40FF51F25
:1002800010822C960FB6F894DEBF0FBECDBFCF9173
:10029000DF911F910F91FF90EF90DF90CF90BF9073
:1002A000AF909F908F907F906F905F904F903F9016
:1002B0002F9008950F931F938B019C01DA0197FDF6
:1002C00003C0E0E0F0E00BC08DE28C933095209508
:1002D000109501951F4F2F4F3F4FE1E0F0E0C9010E
:1002E000B801AD012E2F0AE00E947C001F910F91F2
:1002F00008950E949B0180910B0290910C020E9434
:100300005F0580910B0290910C020E94E601259AF4
:1003100020E931E02D9A80E197E2F9013197F1F778
:100320000197D9F72D9880E197E2F9013197F1F71C
:100330000197D9F7EFCF8DE092E00E94100D0E9457
:10034000A201089590935B0280935A020895E09170
:100350005A02F0915B020190F081E02D0995089519
:10036000E0915A02F0915B020280F381E02D099541
:100370000895E0915A02F0915B020480F581E02D2E
:1003800009950895E0915A02F0915B020680F78189
:10039000E02D09950895E0915A02F0915B020084E6
:1003A000F185E02D09950895E0915A02F0915B02E4
:1003B0000284F385E02D09950895E0915A02F091A9
:1003C0005B020484F585E02D099508952F923F92F4
:1003D0004F925F926F927F928F929F92AF92BF9255
:1003E000CF92DF92EF92FF920F931F93DF93CF9301
:1003F00000D000D0CDB7DEB7C8C2802F81508F3279
:1004000008F0BBC0802F90E0FC013197EF31F1057F
:1004100008F038C3EC5CFF4FEE0FFF1F0590F4911E
:10042000E02D099480916002909161020E94AC05D8
:1004300023C080916002909161020E94390603C13D
:1004400080916002909161020E94750A8091600221
:10045000909161020E94AC057C836B8313C38091F1
:100460006002909161020E945E06FDC08091600270
:10047000909161020E947A062B813C8137C2809163
:100480006002909161020E94A506DDC08091600229
:10049000909161020E94D006E6C080916002909126
:1004A00061020E94FB06E8CF809160029091610298
:1004B0000E941A07C8C080916002909161020E9458
:1004C0003507D1C080916002909161020E9450076F
:1004D000D3CF80916002909161020E947B07B3C0EC
:1004E00080916002909161020E94A607BCC0809139
:1004F0006002909161020E94300CBECF8091600238
:10050000909161020E94D3079EC0809160029091F9
:1005100061020E940008A7C0809160029091610270
:100520000E942B08A9CF80916002909161020E94E5
:10053000560889C080916002909161020E948E08E5
:1005400092C080916002909161020E94C60894CF8F
:1005500080916002909161020E94FE0874C08091B7
:100560006002909161020E9436097DC08091600214
:10057000909161020E946E097FCF802F805380325C
:1005800050F4803114F08051806F992787FD909549
:10059000EB81FC81D5C1802F80558032B0F4182FBB
:1005A000803114F01051106F8091600290916102BF
:1005B0000E94AC05611571058105910509F011E0F6
:1005C000812F992787FD9095AEC1602F60576032CB
:1005D00038F480916002909161020E94A60933C0B4
:1005E000802F80598830B0F4802F90E08770907011
:1005F000843091051CF004978C6F9F6FAC016627C7
:1006000057FD6095762F80916002909161020E9463
:10061000980529C0802F8859883048F40770809148
:10062000600290916102602F0E942B0B25CF802FDA
:10063000805A883060F40770809160029091610266
:10064000602F0E948E0B8B819C8101969EC1802F12
:10065000885A883060F4077080916002909161023E
:10066000602F0E94DC0BEB81FC8131966BC1003B5B
:1006700008F408C2093D09F4AEC00A3D40F5043B48
:1006800009F472C0053B80F4013B09F445C0023B0C
:1006900020F4003B09F0E2C15DC0023B09F446C012
:1006A000033B09F0DBC14CC0053D09F481C0063DA8
:1006B00038F40F3B09F461C0043D09F0CFC167C0B5
:1006C000073D09F488C0083D09F0C8C1A1C00E3D2E
:1006D00009F4CAC00F3D68F40B3D09F4C5C00B3DD9
:1006E00008F496C00C3D09F476C00D3D09F0B6C182
:1006F0008FC0033E09F404C1043E38F4003E09F4FF
:10070000F8C0013E09F0AAC113C1073E09F41DC19A
:100710000F3F09F0A3C13CC180916002909161023A
:10072000EB81FC8161810E948E0B91C180916002FE
:1007300090916102EB81FC8161810E94DC0B87C199
:10074000809160029091610241E050E060E070E0D1
:100750000E9498058091600290916102EB81FC817A
:1007600061810E942B0B73C18091600290916102A4
:100770004FEF5FEF6FEF7FEFEBCF809160029091D3
:100780006102EB81FC8161810E94110A60C1EB81F1
:10079000FC814181552747FD50954E0F5F1F66270D
:1007A00057FD6095762F80916002909161022DC077
:1007B000EB81FC8191808824428150E048295929AD
:1007C0004E0F5F1F662757FD6095762F8091600260
:1007D0009091610242C0EB81FC818181093D19F455
:1007E000482F20E002C0282F40E0809160029091C5
:1007F0006102093D31F4552747FD5095652F752F4E
:1008000004C0422F50E060E070E00E9498051FC1D4
:10081000EB81FC81818192810A3D49F4782E662426
:10082000292F30E02629372940E050E008C0582E13
:100830004424492F50E04429552920E030E080919C
:100840006002909161020A3D31F4A901662757FDCB
:100850006095762F02C060E070E00E9498052B81C1
:100860003C812D5F3F4FF7C02B813C812F5F3F4F75
:10087000F9013196DF0111967D010894E11CF11C0C
:10088000B180AA24A501662757FD6095762F407098
:100890006070707011968C9190E0A0E0B0E0482BF1
:1008A000592B6A2B7B2BEB81FC81D180CC24C60198
:1008B000AA2797FDA095BA2F8070A070B070F9019B
:1008C000018110E020E030E0802B912BA22BB32B94
:1008D000DC0199278827482B592B6A2B7B2B809189
:1008E0006002909161020E94980597012F5F3F4F2F
:1008F000B2C0EB81FC818181992787FD909520C052
:1009000080916002909161020E94AC0561157105B1
:100910008105910511F082E003C0EB81FC818181AA
:10092000992787FD90952B813C81280F391F93C013
:10093000EB81FC8131802224828190E082299329FD
:10094000E80FF91FFC83EB839DC0EB81FC81F181F3
:10095000FA831982EB81FC81028110E029813A81BE
:10096000022B132B3396AF01662757FD6095762F28
:100970003397FC83EB8380916002909161020E9427
:1009800098058B819C81800F911F9C838B837AC0FB
:10099000EB81FC819181892F8058883008F057C005
:1009A000892F90E08F7090708330910589F18430A9
:1009B00091054CF481309105C1F082309105FCF431
:1009C000892B51F044C086309105B1F187309105F3
:1009D000E1F10597E1F525C08091600290916102F7
:1009E0000E94AC050E94A70132C0809160029091E4
:1009F00061020E94AC05862F0E94B00128C0809140
:100A00006002909161020E94AC050E94B9011FC072
:100A100080916002909161020E94AC050E94C20127
:100A200016C080916002909161020E94AC05DC01C9
:100A3000CB010E94CB010BC08091600290916102BA
:100A40000E94AC050E94D40102C00E94DD012B81EE
:100A50003C812E5F3F4F3C832B8314C08EE092E09D
:100A60000E94CB01602F70E080E090E00E94D401F2
:100A700087E192E00E94CB010E94DD0180E090E0DE
:100A80000E94B70DEB81FC810081002309F0B5CCF9
:100A90000F900F900F900F90CF91DF911F910F91BA
:100AA000FF90EF90DF90CF90BF90AF909F908F908E
:100AB0007F906F905F904F903F902F90089510928D
:100AC0005C0210925D0210925E0210925F0280E260
:100AD0000E94750590936102809360020E94E00578
:100AE00090936302809362020895982F882339F0CF
:100AF0008FEF8093E5028093E4029093E60284E610
:100B000092E008950895FC01EF57FF4F20813327AD
:100B100027FD30952F5F3F4F442737FD4095542FD9
:100B2000B901CA010895FC01EE57FF4F8081089575
:100B3000DC01AF57BF4FEC91EF5FEC93FF27E7FD70
:100B4000F095EE0FFF1FEE0FFF1FE80FF91F408318
:100B50005183628373830895DC01AF57BF4F2C919B
:100B6000E22FFF27E7FDF095EE0FFF1FEE0FFF1FAF
:100B7000E80FF91F608171818281938121502C934C
:100B8000089520E030E040E050E0FC01EF57FF4FD7
:100B900080818F3F21F421E030E040E050E0B90156
:100BA000CA010895FC019093E8028093E702EF5791
:100BB000FF4F80818F5F8093E90287EE92E0089576
:100BC000FC019093E8028093E702EF57FF4F80818A
:100BD0008F5F8093E90287EE92E008950895FC010B
:100BE000228121502283332727FD3095432F532F15
:100BF0002095309540955095222757FD2395332712
:100C000044275527B901CA010895FC01A081B1818B
:100C10008281992787FD9095880F991F880F991FCA
:100C2000A80FB91F6C9111967C91119712968C9117
:100C3000129713969C910895FC01A081B181AF5742
:100C4000BF4F8C918F5F82830895FC01EF57FF4F58
:100C50008081E158F040992787FD9095880F991F72
:100C6000880F991FE80FF91F60817181828193813C
:100C70000895BC016F577F4FFB01A081EA2FFF272A
:100C8000E7FDF095EE0FFF1FEE0FFF1FE80FF91FB6
:100C90002081318142815381AF5FFB01A083BB275B
:100CA000A7FDB095AA0FBB1FAA0FBB1FA80FB91FA6
:100CB0002D933D934D935C9313970895FC01EF574B
:100CC000FF4F8081E158F040992787FD9095880F6C
:100CD000991F880F991FE80FF91F80819181A281C8
:100CE000B38180959095A095B09580839183A283E0
:100CF000B3830895DC01AF57BF4F6C91E62FFF27F8
:100D0000E7FDF095EE0FFF1FEE0FFF1FE80FF91F35
:100D10002081318142815381E62FE150EC93FF27FE
:100D2000E7FDF095EE0FFF1FEE0FFF1FE80FF91F15
:100D300080819181A281B38182239323A423B5234F
:100D400080839183A283B3830895DC01AF57BF4FA3
:100D50006C91E62FFF27E7FDF095EE0FFF1FEE0FDA
:100D6000FF1FE80FF91F2081318142815381E62F57
:100D7000E150EC93FF27E7FDF095EE0FFF1FEE0F1C
:100D8000FF1FE80FF91F80819181A281B381822B1F
:100D9000932BA42BB52B80839183A283B3830895D7
:100DA000DC01AF57BF4F6C91E62FFF27E7FDF095B1
:100DB000EE0FFF1FEE0FFF1FE80FF91F208131819B
:100DC00042815381E62FE150EC93FF27E7FDF09538
:100DD000EE0FFF1FEE0FFF1FE80FF91F80819181BB
:100DE000A281B38182279327A427B527808391838B
:100DF000A283B3830895FC01EF57FF4F8081E15830
:100E0000F040992787FD9095880F991F880F991FAB
:100E1000E80FF91F80819181A281B381B095A095DF
:100E2000909581959F4FAF4FBF4F80839183A28351
:100E3000B3830895FC01EF57FF4F8081E158F040E4
:100E4000992787FD9095880F991F880F991FE80FA4
:100E5000F91F80819181A281B3810196A11DB11DED
:100E600080839183A283B3830895FC01EF57FF4FE2
:100E70008081E158F040992787FD9095880F991F50
:100E8000880F991FE80FF91F80819181A281B3819A
:100E90000197A109B10980839183A283B383089547
:100EA000DC01AF57BF4F6C91E62FFF27E7FDF095B0
:100EB000EE0FFF1FEE0FFF1FE80FF91F208131819A
:100EC00042815381E62FE150EC93FF27E7FDF09537
:100ED000EE0FFF1FEE0FFF1FE80FF91F80819181BA
:100EE000A281B381820F931FA41FB51F80839183BA
:100EF000A283B3830895DC01AF57BF4F6C91E62FF7
:100F0000FF27E7FDF095EE0FFF1FEE0FFF1FE80F25
:100F1000F91F2081318142815381E62FE150EC930A
:100F2000FF27E7FDF095EE0FFF1FEE0FFF1FE80F05
:100F3000F91F80819181A281B381821B930BA40B45
:100F4000B50B80839183A283B3830895CF93DF93FE
:100F5000DC01AF57BF4F6C91E62FFF27E7FDF095FF
:100F6000EE0FFF1FEE0FFF1FE80FF91F20813181E9
:100F70004281538161506C93C62FDD27C7FDD09508
:100F8000CC0FDD1FCC0FDD1FC80FD91F6881798101
:100F90008A819B810E942F0D688379838A839B833A
:100FA000DF91CF910895CF93DF93DC01AF57BF4F0F
:100FB0006C91E62FFF27E7FDF095EE0FFF1FEE0F78
:100FC000FF1FE80FF91F2081318142815381615059
:100FD0006C93C62FDD27C7FDD095CC0FDD1FCC0F3E
:100FE000DD1FC80FD91F688179818A819B810E948A
:100FF000700D688379838A839B83DF91CF910895F5
:10100000DC01AF57BF4F3C91E32FFF27E7FDF09581
:10101000EE0FFF1FEE0FFF1FE80FF91F2081E32FD8
:10102000E150EC93FF27E7FDF095EE0FFF1FEE0F69
:10103000FF1FE80FF91F80819181A281B38104C055
:10104000880F991FAA1FBB1F2A95D2F7808391830F
:10105000A283B3830895DC01AF57BF4F3C91E32FC8
:10106000FF27E7FDF095EE0FFF1FEE0FFF1FE80FC4
:10107000F91F2081E32FE150EC93FF27E7FDF09566
:10108000EE0FFF1FEE0FFF1FE80FF91F8081918108
:10109000A281B38104C0B595A795979587952A95A8
:1010A000D2F780839183A283B38308950F931F9314
:1010B000DC01AF57BF4F2C91E22FFF27E7FDF095E2
:1010C000EE0FFF1FEE0FFF1FE80FF91F4081518148
:1010D0006281738121502C93E22FFF27E7FDF09569
:1010E000EE0FFF1FEE0FFF1FE80FF91F00E010E0EB
:1010F00020E030E080819181A281B381841795073F
:10110000A607B70721F401E010E020E030E00083FB
:101110001183228333831F910F9108950F931F939F
:10112000DC01AF57BF4F2C91E22FFF27E7FDF09571
:10113000EE0FFF1FEE0FFF1FE80FF91F40815181D7
:101140006281738121502C93E22FFF27E7FDF095F8
:10115000EE0FFF1FEE0FFF1FE80FF91F00E010E07A
:1011600020E030E080819181A281B38184179507CE
:10117000A607B70721F001E010E020E030E000838F
:101180001183228333831F910F9108950F931F932F
:10119000DC01AF57BF4F2C91E22FFF27E7FDF09501
:1011A000EE0FFF1FEE0FFF1FE80FF91F4081518167
:1011B0006281738121502C93E22FFF27E7FDF09588
:1011C000EE0FFF1FEE0FFF1FE80FF91F00E010E00A
:1011D00020E030E080819181A281B381841795075E
:1011E000A607B70724F401E010E020E030E0008318
:1011F0001183228333831F910F9108950F931F93BF
:10120000DC01AF57BF4F2C91E22FFF27E7FDF09590
:10121000EE0FFF1FEE0FFF1FE80FF91F40815181F6
:101220006281738121502C93E22FFF27E7FDF09517
:10123000EE0FFF1FEE0FFF1FE80FF91F00E010E099
:1012400020E030E080819181A281B3814817590765
:101250006A077B0724F401E010E020E030E000831F
:101260001183228333831F910F9108950F931F934E
:10127000DC01AF57BF4F2C91E22FFF27E7FDF09520
:10128000EE0FFF1FEE0FFF1FE80FF91F4081518186
:101290006281738121502C93E22FFF27E7FDF095A7
:1012A000EE0FFF1FEE0FFF1FE80FF91F00E010E029
:1012B00020E030E080819181A281B38148175907F5
:1012C0006A077B0724F001E010E020E030E00083B3
:1012D0001183228333831F910F9108950F931F93DE
:1012E000DC01AF57BF4F2C91E22FFF27E7FDF095B0
:1012F000EE0FFF1FEE0FFF1FE80FF91F4081518116
:101300006281738121502C93E22FFF27E7FDF09536
:10131000EE0FFF1FEE0FFF1FE80FF91F00E010E0B8
:1013200020E030E080819181A281B381841795070C
:10133000A607B70724F001E010E020E030E00083CA
:101340001183228333831F910F910895CF92DF92EF
:10135000EF92FF920F931F93AC01862F837011E8D9
:10136000C12ED12CC40ED51ED6012C91E22FFF2701
:10137000E7FDF095EE0FFF1FEE0FFF1FE40FF51FC7
:10138000E080F18002811381382F320FE32FFF2795
:10139000E7FDF095EE0FFF1FEE0FFF1FE40FF51FA7
:1013A000262F220F220F2074660F6871262B822BA6
:1013B00090E0A0E0B0E080839183A283B3833F5F9D
:1013C000E32FFF27E7FDF095EE0FFF1FEE0FFF1F46
:1013D000E40FF51FE082F182028313833F5FF60181
:1013E0003083E32FFF27E7FDF095EE0FFF1FEE0F91
:1013F000FF1FE40FF51F40585F4FDA018C919927CA
:1014000087FD9095A92FB92F80839183A283B38301
:10141000FA0130831F910F91FF90EF90DF90CF90F2
:101420000895CF92DF92EF92FF920F931F939C014A
:10143000862F877071E8C72ED12CC20ED31ED6011D
:101440004C91E42FFF27E7FDF095EE0FFF1FEE0F05
:10145000FF1FE20FF31FE080F18002811381480F2C
:10146000E42FFF27E7FDF095EE0FFF1FEE0FFF1FA4
:10147000E20FF31F6877862B90E0A0E0B0E0808356
:101480009183A283B3834F5FE42FFF27E7FDF0959D
:10149000EE0FFF1FEE0FFF1FE20FF31FE082F1823E
:1014A000028313834F5FF6014083E42FFF27E7FD9C
:1014B000F095EE0FFF1FEE0FFF1FE20FF31F2058F6
:1014C0003F4FD9018C91992787FD9095A92FB92F6E
:1014D00080839183A283B383F90140831F910F918D
:1014E000FF90EF90DF90CF9008958F929F92AF92F0
:1014F000BF92CF92DF92EF92FF921F93CF93DF9331
:10150000EC01C058DF4FE881C058D040FF27E7FD0D
:10151000F0953297EE0FFF1FEE0FFF1FEC0FFD1F30
:101520002081822F829586958695837090E0A0E039
:10153000B0E0122F1695169516951770277051E08A
:10154000852E912CA12CB12C88229922AA22BB2273
:1015500080FD05C040E050E060E070E014C0DE01B6
:10156000AF57BF4F8C91E82FFF27E7FDF095EE0FA7
:10157000FF1FEE0FFF1FEC0FFD1F408151816281A5
:10158000738181508C93DE01AF57BF4F9C91E92F3F
:10159000FF27E7FDF095EE0FFF1FEE0FFF1FEC0F8B
:1015A000FD1F8081C058DF4F8883C058D0409150C4
:1015B000E92FFF27E7FDF095EE0FFF1FEE0FFF1F4E
:1015C000EC0FFD1FC080D180E280F380812F820F5D
:1015D000392F381B32503C93822F90E0810F911DA0
:1015E000089714F0321B3C9381149104A104B104B8
:1015F00099F0DE01AF57BF4FEC91EF5FEC93FF27FF
:10160000E7FDF095EE0FFF1FEE0FFF1FEC0FFD1F24
:101610004083518362837383DE01AF57BF4FEC91E8
:10162000EF5FEC93FF27E7FDF095EE0FFF1FEE0F46
:10163000FF1FEC0FFD1FC082D182E282F382DF9197
:10164000CF911F91FF90EF90DF90CF90BF90AF9020
:101650009F908F900895EF92FF921F93CF93DF9307
:10166000EC01462FC058DF4F8881C058D040682F0A
:10167000772767FD7095FB013297EE0FFF1FEE0F86
:10168000FF1FEC0FFD1F8081382F3695369536955C
:101690003770282F2770822F90E0830F911D0897B5
:1016A0002CF0822F841B8E5F820F03C0822F841B3D
:1016B0008E5F830F681B7109660F771F660F771F98
:1016C0006C0F7D1FFB0180819181A281B38131E884
:1016D000E32EF12CEC0EFD1EF7011081E12FFF2708
:1016E000E7FDF095EE0FFF1FEE0FFF1FEC0FFD1F44
:1016F00020813181428153811150F7011083820F83
:10170000931FA41FB51FFB0180839183A283B38322
:10171000DF91CF911F91FF90EF900895CF93DF93CA
:10172000EC01C058DF4F8881C058D040A82FBB279C
:10173000A7FDB095FD013297EE0FFF1FEE0FFF1FC3
:10174000EC0FFD1F8081382F369536953695377012
:10175000282F2770822F90E0830F911D089734F077
:10176000822F861B682F6E5F620F03C0261B622FBD
:101770006E5F630FA61BB109AA0FBB1FAA0FBB1F89
:10178000AC0FBD1F2D913D914D915C91DE01AF5786
:10179000BF4FEC91EF5FEC93FF27E7FDF095EE0F65
:1017A000FF1FEE0FFF1FEC0FFD1F208331834283CD
:1017B0005383DF91CF9108950F931F93CF93DF93BE
:1017C000EC01C058DF4F8881C058D040082F112746
:1017D00007FD1095F8013297EE0FFF1FEE0FFF1F68
:1017E000EC0FFD1F8081382F369536953695377072
:1017F000282F2770822F90E0830F911D089734F0D7
:10180000822F861B682F6E5F620F03C0261B622F1C
:101810006E5F630FDE01AF57BF4F8C91E82FFF273C
:10182000E7FDF095EE0FFF1FEE0FFF1FEC0FFD1F02
:10183000208131814281538181508C93061B110993
:10184000000F111F000F111F0C0F1D1FF801208327
:10185000318342835383DF91CF911F910F9108957C
:101860000F931F93BC01FC01EF57FF4F8081A82FFE
:10187000BB27A7FDB095AA0FBB1FAA0FBB1FA60FC2
:10188000B71F2D913D914D915C91082F0150008320
:10189000211531054105510529F485E392E00E94A7
:1018A000CB0115C0112707FD1095000F111F000F68
:1018B000111F060F171FF8016081718182819381CA
:1018C0000E94700DF80120833183428353831F915E
:1018D0000F910895EF92FF920F931F93CF93DF9391
:1018E000EC01E881F981EF57FF4F80818F5F8A8398
:1018F0008BE50E94B00117C0E881F981992787FD27
:101900009095880F991F880F991FE80FF91FE080A5
:10191000F1800281138187E492E00E94CB01C8012B
:10192000B7010E94D4018A8181508A8387FFE4CF66
:1019300089E492E00E94CB01DF91CF911F910F913A
:10194000FF90EF9008959093C5008093C40088E1C4
:101950008093C1008EE08093C2000895982F8091FB
:10196000C00085FFFCCF9093C600089502C080910F
:10197000C6008091C00087FDFACF08958AE00E94DA
:10198000AE0C0895CF93DF93EC0103C021960E9423
:10199000AE0C88818823D1F7DF91CF9108950E9402
:1019A000AE0C0895611571058105910511F486E469
:1019B00001C084E50E94AE0C0895EF92FF920F9350
:1019C0002EEEE22E22E0F22EA70120E000E10E949E
:1019D0007C00C7010E94C20C0F91FF90EF90089508
:1019E000EF92FF920F933EEEE32E32E0F32EA7012B
:1019F00020E00AE00E947C00C7010E94C20C0F9107
:101A0000FF90EF9008950F931F930EEE12E0A80140
:101A10000E945A01C8010E94C20C1F910F910895A3
:101A20008091EA029091EB02A091EC02B091ED025C
:101A30000097A105B10581F480E190E00E94A30C1C
:101A400081E090E0A0E0B0E08093EA029093EB02A6
:101A5000A093EC02B093ED028CE492E00895629FB3
:101A6000D001739FF001829FE00DF11D649FE00D96
:101A7000F11D929FF00D839FF00D749FF00D659FF7
:101A8000F00D9927729FB00DE11DF91F639FB00DF6
:101A9000E11DF91FBD01CF0111240895A1E21A2E05
:101AA000AA1BBB1BFD010DC0AA1FBB1FEE1FFF1F02
:101AB000A217B307E407F50720F0A21BB30BE40B52
:101AC000F50B661F771F881F991F1A9469F7609599
:101AD0007095809590959B01AC01BD01CF01089553
:101AE00097FB092E05260ED057FD04D0D7DF0AD06C
:101AF000001C38F450954095309521953F4F4F4F3D
:101B00005F4F0895F6F790958095709561957F4F9A
:101B10008F4F9F4F08950F931F93CF93DF938C01A7
:101B2000EB018B8181FF1BC082FF0DC02E813F81A5
:101B30008C819D812817390764F4E881F98101932C
:101B4000F983E88306C0E885F985802F0995892BFC
:101B500031F48E819F8101969F838E8302C00FEFA7
:101B60001FEFC801DF91CF911F910F910895F89455
:021B7000FFCFA5
:101B7200E10099D500A1FF85D500BDFF85D980FF81
:101B820082D97CFF81D97FFF82D97CFF81D97FFFF7
:101B920082D97CFF81D97FFF83D97CFF81DB000D55
:101BA200ECAFFF86D97CFF81DB0000AB8DFF86D9CD
:101BB2007CFF81D930FF81D97CFF81D939FF81D95E
:101BC2007CFF81D961FF81D97CFF81D941FF81D915
:101BD2007CFF81D90AFF82D97CFF81D90AFF82D991
:101BE2007CFF81D90AFF82D97CFF81D90AFF82D981
:101BF2007CFF81D90AFF82D97CFF8190FF80D97C4A
:101C0200FF8191FF80FF870404E7FFFFE7FF670082
:101C1200542E4300546573742030313A2056616C5F
:101C2200756520547970657320284C6974657261FA
:101C32006C73290A002D3132387C3132377C3132D3
:101C4200377C3132377C30303044454341467C303A
:101C5200303030414238447C307C397C617C417C7C
:101C620031307C31307C31307C31307C31307C66BB
:101C7200616C73657C747275650A000001004F70B7
:101C8200636F64653A200020697320726573657220
:101C920076656420666F722066757475726520754C
:101CA2007365642E004469766973696F6E20627988
:101CB200207A65726F0A002000205D00D20CCF0CE2
:0A1CC200030DF00CC20CDD0CBE0C8B
:00000001FF
