:100000000C9434000C9451000C9451000C94510049
:100010000C9451000C9451000C9451000C9451001C
:100020000C9451000C9451000C9451000C9451000C
:100030000C9451000C9451000C9451000C945100FC
:100040000C9451000C9451000C9451000C945100EC
:100050000C9451000C9451000C9451000C945100DC
:100060000C9451000C94510011241FBECFEFD8E026
:10007000DEBFCDBF11E0A0E0B1E0E4EBF5E002C0EF
:1000800005900D92AC37B107D9F711E0ACE7B1E0BC
:1000900001C01D92AE38B107E1F70E9453000C94E5
:1000A000D8020C9400000F931F930E94C30080E0BD
:1000B00091E00E94F3008DE091E00E94F3008FE157
:1000C00091E00E94F30087E591E00E94F3006FEF5A
:1000D0007FEF8FEF9FEF0E94CF008CE70E94D80048
:1000E00060E070E080E090E00E94CF008CE70E942A
:1000F000D80061E070E080E090E00E94CF008CE7E3
:100100000E94D80062E070E080E090E00E94CF00A2
:1001100000E611E0C8010E94F30083E691E00E942E
:10012000F3006FEF7FEF8FEF9FEF0E94E1008CE70E
:100130000E94D80060E070E080E090E80E94E1005A
:100140008CE70E94D8006FEF7FEF8FEF9FE70E9450
:10015000E1008CE70E94D8006FEF7FEF8FEF9FEFF9
:100160000E94EA008CE70E94D8006FEF7FEF8FEFCC
:100170009FEF0E94FC00C8010E94F30080E090E025
:100180001F910F9108958CE691E00E947B010E94DF
:10019000CA00089590937D0180937C010895E091B9
:1001A0007C01F0917D010190F081E02D0995089589
:1001B000E0917C01F0917D010280F381E02D0995B1
:1001C0000895E0917C01F0917D010480F581E02D9E
:1001D00009950895E0917C01F0917D010680F781F9
:1001E000E02D09950895E0917C01F0917D01008456
:1001F000F185E02D09950895E0917C01F0917D0154
:100200000284F385E02D09950895E0917C01F09139
:100210007D010484F585E02D099508959093C5002E
:100220008093C40088E18093C1008EE08093C20077
:100230000895982F8091C00085FFFCCF9093C60051
:10024000089502C08091C6008091C00087FDFACF5A
:1002500008958AE00E9419010895CF93DF93EC017D
:1002600003C021960E94190188818823D1F7DF916C
:10027000CF9108950E9419010895611571058105B6
:10028000910511F486E401C084E50E9419010895E6
:10029000EF92FF920F9322E8E22E21E0F22EA701C7
:1002A00020E000E10E949A01C7010E942D010F91F8
:1002B000FF90EF900895EF92FF920F9332E8E32EB4
:1002C00031E0F32EA70120E00AE00E949A01C70165
:1002D0000E942D010F91FF90EF9008950F931F93AF
:1002E00002E811E0A8010E947802C8010E942D01D5
:1002F0001F910F91089580917E0190917F01A091AF
:100300008001B09181010097A105B10581F480E1E0
:1003100090E00E940E0181E090E0A0E0B0E08093C8
:100320007E0190937F01A0938001B09381018DE6BF
:1003300091E008952F923F924F925F926F927F9239
:100340008F929F92AF92BF92CF92DF92EF92FF92E5
:100350000F931F93DF93CF93CDB7DEB72C970FB6D4
:10036000F894DEBF0FBECDBF69837A838B839C83F5
:100370005C874B872D830E830A3041F4612C2AEC75
:10038000722E2AE9822E2BE3922E07C020E12E83C3
:10039000612C712C812C90E1992E89819A81AB81FD
:1003A000BC810097A105B10571F49D81E92FFF275C
:1003B000E7FDF095AB85BC85EA0FFB1F80E38083EA
:1003C0009F5F9D8372C02224332421013E81232F0D
:1003D00030E040E050E02F83388749875A876981B1
:1003E0007A818B819C81A40193010E94B6025901FC
:1003F0006A01211431044104510429F4A114B10407
:10040000C104D10471F14E814A3079F45D81E52F48
:10041000FF27E7FDF0958B859C85E80FF91F8A2D56
:10042000805D80835F5F5D8317C09AE0A916B10489
:10043000C104D10418F08A2D895C02C08A2D805D28
:10044000AD81EA2FFF27E7FDF0952B853C85E20F74
:10045000F31F8083AF5FAD8381E0282E312C412CC8
:10046000512CC401B3012F81388549855A850E94DA
:10047000B60279018A01E114F10401051105A9F020
:10048000C601B501A40193010E94970229813A8116
:100490004B815C81261B370B480B590B29833A8310
:1004A0004B835C83370148019ACF3D81E32FFF27BF
:1004B000E7FDF0954B855C85E40FF51F10822C96C7
:1004C0000FB6F894DEBF0FBECDBFCF91DF911F9165
:1004D0000F91FF90EF90DF90CF90BF90AF909F90E3
:1004E0008F907F906F905F904F903F902F900895E6
:1004F0000F931F938B019C01DA0197FD03C0E0E08D
:10050000F0E00BC08DE28C9330952095109501950D
:100510001F4F2F4F3F4FE1E0F0E0C901B801AD019F
:100520002E2F0AE00E949A011F910F910895629F59
:10053000D001739FF001829FE00DF11D649FE00DDB
:10054000F11D929FF00D839FF00D749FF00D659F3C
:10055000F00D9927729FB00DE11DF91F639FB00D3B
:10056000E11DF91FBD01CF0111240895A1E21A2E4A
:10057000AA1BBB1BFD010DC0AA1FBB1FEE1FFF1F47
:10058000A217B307E407F50720F0A21BB30BE40B97
:10059000F50B661F771F881F991F1A9469F76095DE
:1005A0007095809590959B01AC01BD01CF01089598
:0405B000F894FFCFED
:1005B40054657374204F75743A3C320A00426F6F6D
:1005C4006C733A205B547C467C547C545D0A00492D
:1005D4006E74733A20205B2D317C2D3231343734E4
:1005E40038333634387C3231343734383336343770
:1005F4007C343239343936373239357C46464646CE
:10060400464646465D0A00426F6F6C733A205B00B3
:100614005D0A00496E74733A20205B00003D013A84
:0C062400016E015B012D0148012901005D
:00000001FF
